{"abi":[{"type":"constructor","inputs":[],"stateMutability":"nonpayable"},{"type":"function","name":"balanceOf","inputs":[{"name":"_owner","type":"address","internalType":"address"}],"outputs":[{"name":"","type":"uint256","internalType":"uint256"}],"stateMutability":"view"},{"type":"function","name":"getTotalTickets","inputs":[],"outputs":[{"name":"","type":"uint256","internalType":"uint256"}],"stateMutability":"view"},{"type":"function","name":"mintTicket","inputs":[{"name":"player","type":"address","internalType":"address"}],"outputs":[{"name":"","type":"uint256","internalType":"uint256"}],"stateMutability":"nonpayable"},{"type":"function","name":"name","inputs":[],"outputs":[{"name":"","type":"string","internalType":"string"}],"stateMutability":"view"},{"type":"function","name":"owner","inputs":[],"outputs":[{"name":"","type":"address","internalType":"address"}],"stateMutability":"view"},{"type":"function","name":"ownerOf","inputs":[{"name":"tokenId","type":"uint256","internalType":"uint256"}],"outputs":[{"name":"","type":"address","internalType":"address"}],"stateMutability":"view"},{"type":"function","name":"symbol","inputs":[],"outputs":[{"name":"","type":"string","internalType":"string"}],"stateMutability":"view"},{"type":"function","name":"transferOwnership","inputs":[{"name":"newOwner","type":"address","internalType":"address"}],"outputs":[],"stateMutability":"nonpayable"},{"type":"event","name":"Transfer","inputs":[{"name":"from","type":"address","indexed":true,"internalType":"address"},{"name":"to","type":"address","indexed":true,"internalType":"address"},{"name":"tokenId","type":"uint256","indexed":true,"internalType":"uint256"}],"anonymous":false}],"bytecode":{"object":"0x60806040526040518060400160405280601781526020017f4a61636b706f742050726f746f636f6c205469636b65740000000000000000008152505f908162000049919062000348565b506040518060400160405280600381526020017f4a505400000000000000000000000000000000000000000000000000000000008152506001908162000090919062000348565b503480156200009d575f80fd5b503360025f6101000a81548173ffffffffffffffffffffffffffffffffffffffff021916908373ffffffffffffffffffffffffffffffffffffffff1602179055506200042c565b5f81519050919050565b7f4e487b71000000000000000000000000000000000000000000000000000000005f52604160045260245ffd5b7f4e487b71000000000000000000000000000000000000000000000000000000005f52602260045260245ffd5b5f60028204905060018216806200016057607f821691505b6020821081036200017657620001756200011b565b5b50919050565b5f819050815f5260205f209050919050565b5f6020601f8301049050919050565b5f82821b905092915050565b5f60088302620001da7fffffffffffffffffffffffffffffffffffffffffffffffffffffffffffffffff826200019d565b620001e686836200019d565b95508019841693508086168417925050509392505050565b5f819050919050565b5f819050919050565b5f620002306200022a6200022484620001fe565b62000207565b620001fe565b9050919050565b5f819050919050565b6200024b8362000210565b620002636200025a8262000237565b848454620001a9565b825550505050565b5f90565b620002796200026b565b6200028681848462000240565b505050565b5b81811015620002ad57620002a15f826200026f565b6001810190506200028c565b5050565b601f821115620002fc57620002c6816200017c565b620002d1846200018e565b81016020851015620002e1578190505b620002f9620002f0856200018e565b8301826200028b565b50505b505050565b5f82821c905092915050565b5f6200031e5f198460080262000301565b1980831691505092915050565b5f6200033883836200030d565b9150826002028217905092915050565b6200035382620000e4565b67ffffffffffffffff8111156200036f576200036e620000ee565b5b6200037b825462000148565b62000388828285620002b1565b5f60209050601f831160018114620003be575f8415620003a9578287015190505b620003b585826200032b565b86555062000424565b601f198416620003ce866200017c565b5f5b82811015620003f757848901518255600182019150602085019450602081019050620003d0565b8683101562000417578489015162000413601f8916826200030d565b8355505b6001600288020188555050505b505050505050565b610d15806200043a5f395ff3fe608060405234801561000f575f80fd5b5060043610610086575f3560e01c806370a082311161005957806370a08231146101265780638da5cb5b1461015657806395d89b4114610174578063f2fde38b1461019257610086565b806306e8337f1461008a57806306fdde03146100a857806308e9bd26146100c65780636352211e146100f6575b5f80fd5b6100926101ae565b60405161009f91906107cb565b60405180910390f35b6100b06101b7565b6040516100bd919061086e565b60405180910390f35b6100e060048036038101906100db91906108ec565b610242565b6040516100ed91906107cb565b60405180910390f35b610110600480360381019061010b9190610941565b610462565b60405161011d919061097b565b60405180910390f35b610140600480360381019061013b91906108ec565b61050e565b60405161014d91906107cb565b60405180910390f35b61015e6105c2565b60405161016b919061097b565b60405180910390f35b61017c6105e7565b604051610189919061086e565b60405180910390f35b6101ac60048036038101906101a791906108ec565b610673565b005b5f600354905090565b5f80546101c3906109c1565b80601f01602080910402602001604051908101604052809291908181526020018280546101ef906109c1565b801561023a5780601f106102115761010080835404028352916020019161023a565b820191905f5260205f20905b81548152906001019060200180831161021d57829003601f168201915b505050505081565b5f60025f9054906101000a900473ffffffffffffffffffffffffffffffffffffffff1673ffffffffffffffffffffffffffffffffffffffff163373ffffffffffffffffffffffffffffffffffffffff16146102d2576040517f08c379a00000000000000000000000000000000000000000000000000000000081526004016102c990610a61565b60405180910390fd5b5f73ffffffffffffffffffffffffffffffffffffffff168273ffffffffffffffffffffffffffffffffffffffff1603610340576040517f08c379a000000000000000000000000000000000000000000000000000000000815260040161033790610ac9565b60405180910390fd5b5f60035490508260045f8381526020019081526020015f205f6101000a81548173ffffffffffffffffffffffffffffffffffffffff021916908373ffffffffffffffffffffffffffffffffffffffff16021790555060055f8473ffffffffffffffffffffffffffffffffffffffff1673ffffffffffffffffffffffffffffffffffffffff1681526020019081526020015f205f8154809291906103e290610b14565b9190505550808373ffffffffffffffffffffffffffffffffffffffff165f73ffffffffffffffffffffffffffffffffffffffff167fddf252ad1be2c89b69c2b068fc378daa952ba7f163c4a11628f55a4df523b3ef60405160405180910390a460035f81548092919061045490610b14565b919050555080915050919050565b5f8060045f8481526020019081526020015f205f9054906101000a900473ffffffffffffffffffffffffffffffffffffffff1690505f73ffffffffffffffffffffffffffffffffffffffff168173ffffffffffffffffffffffffffffffffffffffff1603610505576040517f08c379a00000000000000000000000000000000000000000000000000000000081526004016104fc90610ba5565b60405180910390fd5b80915050919050565b5f8073ffffffffffffffffffffffffffffffffffffffff168273ffffffffffffffffffffffffffffffffffffffff160361057d576040517f08c379a000000000000000000000000000000000000000000000000000000000815260040161057490610c33565b60405180910390fd5b60055f8373ffffffffffffffffffffffffffffffffffffffff1673ffffffffffffffffffffffffffffffffffffffff1681526020019081526020015f20549050919050565b60025f9054906101000a900473ffffffffffffffffffffffffffffffffffffffff1681565b600180546105f4906109c1565b80601f0160208091040260200160405190810160405280929190818152602001828054610620906109c1565b801561066b5780601f106106425761010080835404028352916020019161066b565b820191905f5260205f20905b81548152906001019060200180831161064e57829003601f168201915b505050505081565b60025f9054906101000a900473ffffffffffffffffffffffffffffffffffffffff1673ffffffffffffffffffffffffffffffffffffffff163373ffffffffffffffffffffffffffffffffffffffff1614610702576040517f08c379a00000000000000000000000000000000000000000000000000000000081526004016106f990610a61565b60405180910390fd5b5f73ffffffffffffffffffffffffffffffffffffffff168173ffffffffffffffffffffffffffffffffffffffff1603610770576040517f08c379a000000000000000000000000000000000000000000000000000000000815260040161076790610cc1565b60405180910390fd5b8060025f6101000a81548173ffffffffffffffffffffffffffffffffffffffff021916908373ffffffffffffffffffffffffffffffffffffffff16021790555050565b5f819050919050565b6107c5816107b3565b82525050565b5f6020820190506107de5f8301846107bc565b92915050565b5f81519050919050565b5f82825260208201905092915050565b5f5b8381101561081b578082015181840152602081019050610800565b5f8484015250505050565b5f601f19601f8301169050919050565b5f610840826107e4565b61084a81856107ee565b935061085a8185602086016107fe565b61086381610826565b840191505092915050565b5f6020820190508181035f8301526108868184610836565b905092915050565b5f80fd5b5f73ffffffffffffffffffffffffffffffffffffffff82169050919050565b5f6108bb82610892565b9050919050565b6108cb816108b1565b81146108d5575f80fd5b50565b5f813590506108e6816108c2565b92915050565b5f602082840312156109015761090061088e565b5b5f61090e848285016108d8565b91505092915050565b610920816107b3565b811461092a575f80fd5b50565b5f8135905061093b81610917565b92915050565b5f602082840312156109565761095561088e565b5b5f6109638482850161092d565b91505092915050565b610975816108b1565b82525050565b5f60208201905061098e5f83018461096c565b92915050565b7f4e487b71000000000000000000000000000000000000000000000000000000005f52602260045260245ffd5b5f60028204905060018216806109d857607f821691505b6020821081036109eb576109ea610994565b5b50919050565b7f4f6e6c79206f776e65722063616e2063616c6c20746869732066756e6374696f5f8201527f6e00000000000000000000000000000000000000000000000000000000000000602082015250565b5f610a4b6021836107ee565b9150610a56826109f1565b604082019050919050565b5f6020820190508181035f830152610a7881610a3f565b9050919050565b7f4552433732313a206d696e7420746f20746865207a65726f20616464726573735f82015250565b5f610ab36020836107ee565b9150610abe82610a7f565b602082019050919050565b5f6020820190508181035f830152610ae081610aa7565b9050919050565b7f4e487b71000000000000000000000000000000000000000000000000000000005f52601160045260245ffd5b5f610b1e826107b3565b91507fffffffffffffffffffffffffffffffffffffffffffffffffffffffffffffffff8203610b5057610b4f610ae7565b5b600182019050919050565b7f4552433732313a20696e76616c696420746f6b656e20494400000000000000005f82015250565b5f610b8f6018836107ee565b9150610b9a82610b5b565b602082019050919050565b5f6020820190508181035f830152610bbc81610b83565b9050919050565b7f4552433732313a2061646472657373207a65726f206973206e6f7420612076615f8201527f6c6964206f776e65720000000000000000000000000000000000000000000000602082015250565b5f610c1d6029836107ee565b9150610c2882610bc3565b604082019050919050565b5f6020820190508181035f830152610c4a81610c11565b9050919050565b7f4f776e61626c653a206e6577206f776e657220697320746865207a65726f20615f8201527f6464726573730000000000000000000000000000000000000000000000000000602082015250565b5f610cab6026836107ee565b9150610cb682610c51565b604082019050919050565b5f6020820190508181035f830152610cd881610c9f565b905091905056fea26469706673582212205e0559ea5efec4f095107908604fe7ef06fcd1ffa41a769e311d1c8d43c2741b64736f6c63430008140033","linkReferences":{}},"methodIdentifiers":{"balanceOf(address)":"70a08231","getTotalTickets()":"06e8337f","mintTicket(address)":"08e9bd26","name()":"06fdde03","owner()":"8da5cb5b","ownerOf(uint256)":"6352211e","symbol()":"95d89b41","transferOwnership(address)":"f2fde38b"},"id":17}