{"abi":[{"type":"constructor","inputs":[{"name":"_ticketAddress","type":"address","internalType":"address"},{"name":"_usdcAddress","type":"address","internalType":"address"}],"stateMutability":"nonpayable"},{"type":"function","name":"BPS_DIVIDER","inputs":[],"outputs":[{"name":"","type":"uint256","internalType":"uint256"}],"stateMutability":"view"},{"type":"function","name":"JACKPOT_SHARE_BPS","inputs":[],"outputs":[{"name":"","type":"uint256","internalType":"uint256"}],"stateMutability":"view"},{"type":"function","name":"PROTOCOL_SHARE_BPS","inputs":[],"outputs":[{"name":"","type":"uint256","internalType":"uint256"}],"stateMutability":"view"},{"type":"function","name":"TICKET_PRICE","inputs":[],"outputs":[{"name":"","type":"uint256","internalType":"uint256"}],"stateMutability":"view"},{"type":"function","name":"buyTicket","inputs":[],"outputs":[],"stateMutability":"nonpayable"},{"type":"function","name":"finalizeLottery","inputs":[{"name":"_revealValue","type":"bytes32","internalType":"bytes32"}],"outputs":[],"stateMutability":"nonpayable"},{"type":"function","name":"lastLotteryId","inputs":[],"outputs":[{"name":"","type":"uint256","internalType":"uint256"}],"stateMutability":"view"},{"type":"function","name":"lotteries","inputs":[{"name":"","type":"uint256","internalType":"uint256"}],"outputs":[{"name":"startTime","type":"uint256","internalType":"uint256"},{"name":"endTime","type":"uint256","internalType":"uint256"},{"name":"commitment","type":"bytes32","internalType":"bytes32"},{"name":"winningTicketId","type":"uint256","internalType":"uint256"},{"name":"winner","type":"address","internalType":"address"},{"name":"totalPrize","type":"uint256","internalType":"uint256"}],"stateMutability":"view"},{"type":"function","name":"lotteryStatus","inputs":[],"outputs":[{"name":"","type":"uint8","internalType":"enum JackpotLottery.Status"}],"stateMutability":"view"},{"type":"function","name":"owner","inputs":[],"outputs":[{"name":"","type":"address","internalType":"address"}],"stateMutability":"view"},{"type":"function","name":"startNewLottery","inputs":[{"name":"durationInSeconds","type":"uint256","internalType":"uint256"},{"name":"_commitment","type":"bytes32","internalType":"bytes32"}],"outputs":[],"stateMutability":"nonpayable"},{"type":"function","name":"ticketContract","inputs":[],"outputs":[{"name":"","type":"address","internalType":"contract JackpotTicket"}],"stateMutability":"view"},{"type":"function","name":"usdcContract","inputs":[],"outputs":[{"name":"","type":"address","internalType":"contract IUSDC"}],"stateMutability":"view"},{"type":"event","name":"LotteryFinalized","inputs":[{"name":"lotteryId","type":"uint256","indexed":true,"internalType":"uint256"},{"name":"winningTicketId","type":"uint256","indexed":false,"internalType":"uint256"},{"name":"winner","type":"address","indexed":true,"internalType":"address"}],"anonymous":false},{"type":"event","name":"LotteryStarted","inputs":[{"name":"lotteryId","type":"uint256","indexed":true,"internalType":"uint256"},{"name":"endTime","type":"uint256","indexed":false,"internalType":"uint256"}],"anonymous":false},{"type":"event","name":"TicketPurchased","inputs":[{"name":"lotteryId","type":"uint256","indexed":true,"internalType":"uint256"},{"name":"player","type":"address","indexed":true,"internalType":"address"},{"name":"ticketId","type":"uint256","indexed":true,"internalType":"uint256"}],"anonymous":false}],"bytecode":{"object":"0x60c060405234801562000010575f80fd5b5060405162001a0e38038062001a0e833981810160405281019062000036919062000177565b335f806101000a81548173ffffffffffffffffffffffffffffffffffffffff021916908373ffffffffffffffffffffffffffffffffffffffff1602179055508173ffffffffffffffffffffffffffffffffffffffff1660808173ffffffffffffffffffffffffffffffffffffffff16815250508073ffffffffffffffffffffffffffffffffffffffff1660a08173ffffffffffffffffffffffffffffffffffffffff168152505060015f60146101000a81548160ff02191690836002811115620001055762000104620001bc565b5b02179055505050620001e9565b5f80fd5b5f73ffffffffffffffffffffffffffffffffffffffff82169050919050565b5f620001418262000116565b9050919050565b620001538162000135565b81146200015e575f80fd5b50565b5f81519050620001718162000148565b92915050565b5f806040838503121562000190576200018f62000112565b5b5f6200019f8582860162000161565b9250506020620001b28582860162000161565b9150509250929050565b7f4e487b71000000000000000000000000000000000000000000000000000000005f52602160045260245ffd5b60805160a0516117d26200023c5f395f818161026a015281816106e5015281816107b5015281816108510152610c7c01525f81816104e1015281816105ff015281816109980152610d1e01526117d25ff3fe608060405234801561000f575f80fd5b50600436106100cd575f3560e01c806358a86e1d1161008a5780637c4283bc116100645780637c4283bc146101f25780638da5cb5b14610210578063928220471461022e578063edca914c1461024c576100cd565b806358a86e1d1461019a5780636a079e83146101b857806372ec3108146101d6576100cd565b80630d683dd9146100d15780631323e88b146100ef5780631398e0761461010d5780631a95f15f1461014257806334429033146101605780634e3fb85d1461017c575b5f80fd5b6100d9610256565b6040516100e69190610e74565b60405180910390f35b6100f7610268565b6040516101049190610f07565b60405180910390f35b61012760048036038101906101229190610f57565b61028c565b60405161013996959493929190610fc9565b60405180910390f35b61014a6102e3565b6040516101579190611028565b60405180910390f35b61017a6004803603810190610175919061106b565b6102ea565b005b610184610990565b6040516101919190611028565b60405180910390f35b6101a2610996565b6040516101af91906110b6565b60405180910390f35b6101c06109ba565b6040516101cd9190611028565b60405180910390f35b6101f060048036038101906101eb91906110cf565b6109c0565b005b6101fa610b7f565b6040516102079190611028565b60405180910390f35b610218610b85565b604051610225919061110d565b60405180910390f35b610236610ba8565b6040516102439190611028565b60405180910390f35b610254610bae565b005b5f60149054906101000a900460ff1681565b7f000000000000000000000000000000000000000000000000000000000000000081565b6002602052805f5260405f205f91509050805f015490806001015490806002015490806003015490806004015f9054906101000a900473ffffffffffffffffffffffffffffffffffffffff16908060050154905086565b620f424081565b5f8054906101000a900473ffffffffffffffffffffffffffffffffffffffff1673ffffffffffffffffffffffffffffffffffffffff163373ffffffffffffffffffffffffffffffffffffffff1614610377576040517f08c379a000000000000000000000000000000000000000000000000000000000815260040161036e90611180565b60405180910390fd5b5f600281111561038a57610389610e01565b5b5f60149054906101000a900460ff1660028111156103ab576103aa610e01565b5b146103eb576040517f08c379a00000000000000000000000000000000000000000000000000000000081526004016103e2906111e8565b60405180910390fd5b5f60025f60015481526020019081526020015f2090508060010154421015610448576040517f08c379a000000000000000000000000000000000000000000000000000000000815260040161043f90611250565b60405180910390fd5b80600201548260405160200161045e919061128e565b60405160208183030381529060405280519060200120146104b4576040517f08c379a00000000000000000000000000000000000000000000000000000000081526004016104ab906112f2565b60405180910390fd5b60015f60146101000a81548160ff021916908360028111156104d9576104d8610e01565b5b02179055505f7f000000000000000000000000000000000000000000000000000000000000000073ffffffffffffffffffffffffffffffffffffffff166306e8337f6040518163ffffffff1660e01b8152600401602060405180830381865afa158015610548573d5f803e3d5ffd5b505050506040513d601f19601f8201168201806040525081019061056c9190611324565b90505f81116105b0576040517f08c379a00000000000000000000000000000000000000000000000000000000081526004016105a790611399565b60405180910390fd5b5f836001436105bf91906113e4565b40426040516020016105d393929190611437565b604051602081830303815290604052805190602001205f1c90505f82826105fa91906114a0565b90505f7f000000000000000000000000000000000000000000000000000000000000000073ffffffffffffffffffffffffffffffffffffffff16636352211e836040518263ffffffff1660e01b81526004016106569190611028565b602060405180830381865afa158015610671573d5f803e3d5ffd5b505050506040513d601f19601f8201168201806040525081019061069591906114fa565b905081856003018190555080856004015f6101000a81548173ffffffffffffffffffffffffffffffffffffffff021916908373ffffffffffffffffffffffffffffffffffffffff1602179055505f7f000000000000000000000000000000000000000000000000000000000000000073ffffffffffffffffffffffffffffffffffffffff166370a08231306040518263ffffffff1660e01b815260040161073c919061110d565b602060405180830381865afa158015610757573d5f803e3d5ffd5b505050506040513d601f19601f8201168201806040525081019061077b9190611324565b90505f612710611f408361078f9190611525565b6107999190611566565b90505f81836107a891906113e4565b90508188600501819055507f000000000000000000000000000000000000000000000000000000000000000073ffffffffffffffffffffffffffffffffffffffff1663a9059cbb85846040518363ffffffff1660e01b815260040161080e929190611596565b6020604051808303815f875af115801561082a573d5f803e3d5ffd5b505050506040513d601f19601f8201168201806040525081019061084e91906115f2565b507f000000000000000000000000000000000000000000000000000000000000000073ffffffffffffffffffffffffffffffffffffffff1663a9059cbb5f8054906101000a900473ffffffffffffffffffffffffffffffffffffffff16836040518363ffffffff1660e01b81526004016108c9929190611596565b6020604051808303815f875af11580156108e5573d5f803e3d5ffd5b505050506040513d601f19601f8201168201806040525081019061090991906115f2565b5060025f60146101000a81548160ff0219169083600281111561092f5761092e610e01565b5b02179055508373ffffffffffffffffffffffffffffffffffffffff166001547fb4a50eea3c43f1ca1ad5ea25e1229a791940e69de34245cba39b0a17c19fa2088760405161097d9190611028565b60405180910390a3505050505050505050565b60015481565b7f000000000000000000000000000000000000000000000000000000000000000081565b611f4081565b5f8054906101000a900473ffffffffffffffffffffffffffffffffffffffff1673ffffffffffffffffffffffffffffffffffffffff163373ffffffffffffffffffffffffffffffffffffffff1614610a4d576040517f08c379a0000000000000000000000000000000000000000000000000000000008152600401610a4490611180565b60405180910390fd5b5f6002811115610a6057610a5f610e01565b5b5f60149054906101000a900460ff166002811115610a8157610a80610e01565b5b03610ac1576040517f08c379a0000000000000000000000000000000000000000000000000000000008152600401610ab890611667565b60405180910390fd5b60015f815480929190610ad390611685565b91905055505f8060146101000a81548160ff02191690836002811115610afc57610afb610e01565b5b02179055505f60025f60015481526020019081526020015f20905042815f01819055508242610b2b91906116cc565b81600101819055508181600201819055506001547f42da29f4f7ae27bdc650322fcbe8b195ca17a63b0ae83b04577efe0e3e079c0c8260010154604051610b729190611028565b60405180910390a2505050565b61271081565b5f8054906101000a900473ffffffffffffffffffffffffffffffffffffffff1681565b6107d081565b5f6002811115610bc157610bc0610e01565b5b5f60149054906101000a900460ff166002811115610be257610be1610e01565b5b14610c22576040517f08c379a0000000000000000000000000000000000000000000000000000000008152600401610c19906111e8565b60405180910390fd5b60025f60015481526020019081526020015f20600101544210610c7a576040517f08c379a0000000000000000000000000000000000000000000000000000000008152600401610c7190611749565b60405180910390fd5b7f000000000000000000000000000000000000000000000000000000000000000073ffffffffffffffffffffffffffffffffffffffff166323b872dd3330620f42406040518463ffffffff1660e01b8152600401610cda93929190611767565b6020604051808303815f875af1158015610cf6573d5f803e3d5ffd5b505050506040513d601f19601f82011682018060405250810190610d1a91906115f2565b505f7f000000000000000000000000000000000000000000000000000000000000000073ffffffffffffffffffffffffffffffffffffffff166308e9bd26336040518263ffffffff1660e01b8152600401610d75919061110d565b6020604051808303815f875af1158015610d91573d5f803e3d5ffd5b505050506040513d601f19601f82011682018060405250810190610db59190611324565b9050803373ffffffffffffffffffffffffffffffffffffffff166001547fdbaaf4c87ce30816c961a81d110622a3227ede77953d4383d514ff88ab2e0fd360405160405180910390a450565b7f4e487b71000000000000000000000000000000000000000000000000000000005f52602160045260245ffd5b60038110610e3f57610e3e610e01565b5b50565b5f819050610e4f82610e2e565b919050565b5f610e5e82610e42565b9050919050565b610e6e81610e54565b82525050565b5f602082019050610e875f830184610e65565b92915050565b5f73ffffffffffffffffffffffffffffffffffffffff82169050919050565b5f819050919050565b5f610ecf610eca610ec584610e8d565b610eac565b610e8d565b9050919050565b5f610ee082610eb5565b9050919050565b5f610ef182610ed6565b9050919050565b610f0181610ee7565b82525050565b5f602082019050610f1a5f830184610ef8565b92915050565b5f80fd5b5f819050919050565b610f3681610f24565b8114610f40575f80fd5b50565b5f81359050610f5181610f2d565b92915050565b5f60208284031215610f6c57610f6b610f20565b5b5f610f7984828501610f43565b91505092915050565b610f8b81610f24565b82525050565b5f819050919050565b610fa381610f91565b82525050565b5f610fb382610e8d565b9050919050565b610fc381610fa9565b82525050565b5f60c082019050610fdc5f830189610f82565b610fe96020830188610f82565b610ff66040830187610f9a565b6110036060830186610f82565b6110106080830185610fba565b61101d60a0830184610f82565b979650505050505050565b5f60208201905061103b5f830184610f82565b92915050565b61104a81610f91565b8114611054575f80fd5b50565b5f8135905061106581611041565b92915050565b5f602082840312156110805761107f610f20565b5b5f61108d84828501611057565b91505092915050565b5f6110a082610ed6565b9050919050565b6110b081611096565b82525050565b5f6020820190506110c95f8301846110a7565b92915050565b5f80604083850312156110e5576110e4610f20565b5b5f6110f285828601610f43565b925050602061110385828601611057565b9150509250929050565b5f6020820190506111205f830184610fba565b92915050565b5f82825260208201905092915050565b7f4f6e6c79206f776e6572000000000000000000000000000000000000000000005f82015250565b5f61116a600a83611126565b915061117582611136565b602082019050919050565b5f6020820190508181035f8301526111978161115e565b9050919050565b7f4c6f7474657279206973206e6f74206f70656e000000000000000000000000005f82015250565b5f6111d2601383611126565b91506111dd8261119e565b602082019050919050565b5f6020820190508181035f8301526111ff816111c6565b9050919050565b7f4c6f747465727920686173206e6f7420656e64656420796574000000000000005f82015250565b5f61123a601983611126565b915061124582611206565b602082019050919050565b5f6020820190508181035f8301526112678161122e565b9050919050565b5f819050919050565b61128861128382610f91565b61126e565b82525050565b5f6112998284611277565b60208201915081905092915050565b7f496e76616c69642072657665616c0000000000000000000000000000000000005f82015250565b5f6112dc600e83611126565b91506112e7826112a8565b602082019050919050565b5f6020820190508181035f830152611309816112d0565b9050919050565b5f8151905061131e81610f2d565b92915050565b5f6020828403121561133957611338610f20565b5b5f61134684828501611310565b91505092915050565b7f4e6f207469636b65747320736f6c6400000000000000000000000000000000005f82015250565b5f611383600f83611126565b915061138e8261134f565b602082019050919050565b5f6020820190508181035f8301526113b081611377565b9050919050565b7f4e487b71000000000000000000000000000000000000000000000000000000005f52601160045260245ffd5b5f6113ee82610f24565b91506113f983610f24565b9250828203905081811115611411576114106113b7565b5b92915050565b5f819050919050565b61143161142c82610f24565b611417565b82525050565b5f6114428286611277565b6020820191506114528285611277565b6020820191506114628284611420565b602082019150819050949350505050565b7f4e487b71000000000000000000000000000000000000000000000000000000005f52601260045260245ffd5b5f6114aa82610f24565b91506114b583610f24565b9250826114c5576114c4611473565b5b828206905092915050565b6114d981610fa9565b81146114e3575f80fd5b50565b5f815190506114f4816114d0565b92915050565b5f6020828403121561150f5761150e610f20565b5b5f61151c848285016114e6565b91505092915050565b5f61152f82610f24565b915061153a83610f24565b925082820261154881610f24565b9150828204841483151761155f5761155e6113b7565b5b5092915050565b5f61157082610f24565b915061157b83610f24565b92508261158b5761158a611473565b5b828204905092915050565b5f6040820190506115a95f830185610fba565b6115b66020830184610f82565b9392505050565b5f8115159050919050565b6115d1816115bd565b81146115db575f80fd5b50565b5f815190506115ec816115c8565b92915050565b5f6020828403121561160757611606610f20565b5b5f611614848285016115de565b91505092915050565b7f41206c6f747465727920697320616c7265616479206f70656e000000000000005f82015250565b5f611651601983611126565b915061165c8261161d565b602082019050919050565b5f6020820190508181035f83015261167e81611645565b9050919050565b5f61168f82610f24565b91507fffffffffffffffffffffffffffffffffffffffffffffffffffffffffffffffff82036116c1576116c06113b7565b5b600182019050919050565b5f6116d682610f24565b91506116e183610f24565b92508282019050808211156116f9576116f86113b7565b5b92915050565b7f4c6f74746572792068617320656e6465640000000000000000000000000000005f82015250565b5f611733601183611126565b915061173e826116ff565b602082019050919050565b5f6020820190508181035f83015261176081611727565b9050919050565b5f60608201905061177a5f830186610fba565b6117876020830185610fba565b6117946040830184610f82565b94935050505056fea26469706673582212209ea066f677f134b51a32bf5c6bcf56bed7715846bd12e3294d4d5ce8c921743764736f6c63430008140033","linkReferences":{}},"methodIdentifiers":{"BPS_DIVIDER()":"7c4283bc","JACKPOT_SHARE_BPS()":"6a079e83","PROTOCOL_SHARE_BPS()":"92822047","TICKET_PRICE()":"1a95f15f","buyTicket()":"edca914c","finalizeLottery(bytes32)":"34429033","lastLotteryId()":"4e3fb85d","lotteries(uint256)":"1398e076","lotteryStatus()":"0d683dd9","owner()":"8da5cb5b","startNewLottery(uint256,bytes32)":"72ec3108","ticketContract()":"58a86e1d","usdcContract()":"1323e88b"},"id":16}